:020000040800F2
:100000000050002095240008E9230008EF23000891
:10001000F5230008FB23000801240008000000006D
:10002000000000000000000000000000072400089D
:1000300013240008000000001F2400082B240008DF
:10004000DD240008DD240008DD240008DD2400088C
:10005000DD240008DD240008DD240008DD2400087C
:10006000DD240008DD240008DD240008DD2400086C
:10007000DD240008DD240008DD240008DD2400085C
:10008000DD240008DD240008DD240008DD2400084C
:1000900039240008DD240008DD240008DD240008E0
:1000A000DD2400084D240008DD240008DD240008BC
:1000B00061240008DD240008DD240008DD24000898
:1000C000DD240008DD240008DD240008DD2400080C
:1000D000DD24000875240008DD240008DD24000864
:1000E000DD240008DD240008DD24000800000000F5
:1000F0000000000000000000000000000000000000
:0C01000000000000000000005FF808F1A3
:1001100010B5054C237833B9044B13B10448AFF341
:1001200000800123237010BD6C000020000000003F
:10013000E85B000808B5034B1BB103490348AFF364
:10014000008008BD0000000070000020E85B00088F
:1001500081F0004102E000BF83F0004330B54FEA78
:1001600041044FEA430594EA050F08BF90EA020FE5
:100170001FBF54EA000C55EA020C7FEA645C7FEA78
:10018000655C00F0E2804FEA5454D4EB5555B8BF9B
:100190006D420CDD2C4480EA020281EA030382EA0C
:1001A000000083EA010180EA020281EA0303362D9E
:1001B00088BF30BD11F0004F4FEA01314FF4801C71
:1001C0004CEA113102D0404261EB410113F0004F83
:1001D0004FEA03334CEA133302D0524263EB43033A
:1001E00094EA050F00F0A780A4F10104D5F1200ED8
:1001F0000DDB02FA0EFC22FA05F2801841F1000133
:1002000003FA0EF2801843FA05F359410EE0A5F106
:1002100020050EF1200E012A03FA0EFC28BF4CF037
:10022000020C43FA05F3C01851EBE37101F00045ED
:1002300007D54FF0000EDCF1000C7EEB00006EEBFA
:100240000101B1F5801F1BD3B1F5001F0CD3490884
:100250005FEA30004FEA3C0C04F101044FEA4452DB
:1002600012F5800F80F09A80BCF1004F08BF5FEA62
:10027000500C50F1000041EB045141EA050130BD42
:100280005FEA4C0C404141EB0101013C28BFB1F554
:10029000801FE9D291F0000F04BF01460020B1FA9F
:1002A00081F308BF2033A3F10B03B3F120020CDA72
:1002B0000C3208DD02F1140CC2F10C0201FA0CF050
:1002C00021FA02F10CE002F11402D8BFC2F1200CB5
:1002D00001FA02F120FA0CFCDCBF41EA0C0190406B
:1002E000E41AA2BF01EB0451294330BD6FEA0404B4
:1002F0001F3C1CDA0C340EDC04F11404C4F120029F
:1003000020FA04F001FA02F340EA030021FA04F3B0
:1003100045EA030130BDC4F10C04C4F1200220FA07
:1003200002F001FA04F340EA0300294630BD21FA45
:1003300004F0294630BD94F0000F83F4801306BF0B
:1003400081F480110134013D4EE77FEA645C18BFFF
:100350007FEA655C29D094EA050F08BF90EA020F96
:1003600005D054EA000C04BF1946104630BD91EA8E
:10037000030F1EBF0021002030BD5FEA545C05D191
:100380004000494128BF41F0004130BD14F58004D0
:100390003CBF01F5801130BD01F0004545F0FE4144
:1003A00041F470014FF0000030BD7FEA645C1ABF79
:1003B000194610467FEA655C1CBF0B46024650EAB0
:1003C000013406BF52EA033591EA030F41F40021DC
:1003D00030BD00BF90F0000F04BF0021704730B562
:1003E0004FF4806404F132044FF000054FF0000137
:1003F00050E700BF90F0000F04BF0021704730B5F8
:100400004FF4806404F1320410F0004548BF4042CC
:100410004FF000013EE700BF42004FEAE2014FEA21
:1004200031014FEA02701FBF12F07F4393F07F4FFC
:1004300081F06051704732F07F4208BF704793F0FF
:100440007F4F04BF41F40021704730B54FF4607412
:1004500001F0004521F000411CE700BF50EA010215
:1004600008BF704730B54FF000050AE050EA0102BE
:1004700008BF704730B511F0004502D5404261EB2E
:1004800041014FF4806404F132045FEA915C3FF46F
:10049000D8AE4FF003025FEADC0C18BF03325FEA0C
:1004A000DC0C18BF033202EBDC02C2F1200300FABD
:1004B00003FC20FA02F001FA03FE40EA0E0021FAE2
:1004C00002F11444BDE600BF70B54FF0FF0C4CF4D0
:1004D000E06C1CEA11541DBF1CEA135594EA0C0F82
:1004E00095EA0C0F00F0DEF82C4481EA030621EABD
:1004F0004C5123EA4C5350EA013518BF52EA0335F8
:1005000041F4801143F4801338D0A0FB02CE4FF0A9
:100510000005E1FB02E506F00042E0FB03E54FF0D9
:100520000006E1FB03569CF0000F18BF4EF0010ED1
:10053000A4F1FF04B6F5007F64F5407404D25FEACD
:100540004E0E6D4146EB060642EAC62141EA555180
:100550004FEAC52040EA5E504FEACE2EB4F1FD0CC2
:1005600088BFBCF5E06F1ED8BEF1004F08BF5FEA40
:10057000500E50F1000041EB045170BD06F00046F2
:1005800046EA010140EA020081EA0301B4EB5C049F
:10059000C2BFD4EB0C0541EA045170BD41F4801197
:1005A0004FF0000E013C00F3AB8014F1360FDEBFBC
:1005B000002001F0004170BDC4F10004203C35DA98
:1005C0000C341BDC04F11404C4F1200500FA05F31B
:1005D00020FA04F001FA05F240EA020001F00042BC
:1005E00021F0004110EBD37021FA04F642EB060132
:1005F0005EEA430E08BF20EAD37070BDC4F10C045C
:10060000C4F1200500FA04F320FA05F001FA04F21F
:1006100040EA020001F0004110EBD37041F100010B
:100620005EEA430E08BF20EAD37070BDC4F1200516
:1006300000FA05F24EEA020E20FA04F301FA05F27E
:1006400043EA020321FA04F001F0004121FA04F226
:1006500020EA020000EBD3705EEA430E08BF20EAF6
:10066000D37070BD94F0000F0FD101F00046400030
:1006700041EB010111F4801F08BF013CF7D041EAB2
:10068000060195F0000F18BF704703F000465200B6
:1006900043EB030313F4801F08BF013DF7D043EA87
:1006A0000603704794EA0C0F0CEA135518BF95EA3D
:1006B0000C0F0CD050EA410618BF52EA4306D1D1C4
:1006C00081EA030101F000414FF0000070BD50EAE3
:1006D000410606BF1046194652EA430619D094EA6D
:1006E0000C0F02D150EA013613D195EA0C0F05D157
:1006F00052EA03361CBF104619460AD181EA0301AB
:1007000001F0004141F0FE4141F470014FF0000062
:1007100070BD41F0FE4141F4780170BD70B54FF0FD
:10072000FF0C4CF4E06C1CEA11541DBF1CEA13557D
:1007300094EA0C0F95EA0C0F00F0A7F8A4EB05045F
:1007400081EA030E52EA03354FEA013100F0888056
:100750004FEA03334FF0805545EA131343EA12631F
:100760004FEA022245EA111545EA10654FEA0026D4
:100770000EF000419D4208BF964244F1FD0404F58D
:10078000407402D25B084FEA3202B61A65EB0305E9
:100790005B084FEA32024FF480104FF4002CB6EBA6
:1007A000020E75EB030E22BFB61A754640EA0C0026
:1007B0005B084FEA3202B6EB020E75EB030E22BF66
:1007C000B61A754640EA5C005B084FEA3202B6EBA7
:1007D000020E75EB030E22BFB61A754640EA9C0066
:1007E0005B084FEA3202B6EB020E75EB030E22BF36
:1007F000B61A754640EADC0055EA060E18D04FEAF4
:10080000051545EA16754FEA06164FEAC30343EA93
:1008100052734FEAC2025FEA1C1CC0D111F4801F60
:100820000BD141EA00014FF000004FF0004CB6E759
:1008300011F4801F04BF01430020B4F1FD0C88BFF8
:10084000BCF5E06F3FF6AFAEB5EB030C04BFB6EB03
:10085000020C5FEA500C50F1000041EB045170BDF6
:100860000EF0004E4EEA113114EB5C04C2BFD4EB23
:100870000C0541EA045170BD41F480114FF0000EA7
:10088000013C90E645EA060E8DE60CEA135594EA23
:100890000C0F08BF95EA0C0F3FF43BAF94EA0C0F26
:1008A0000AD150EA01347FF434AF95EA0C0F7FF49B
:1008B00025AF104619462CE795EA0C0F06D152EAEF
:1008C00003353FF4FDAE1046194622E750EA4106D3
:1008D00018BF52EA43067FF4C5AE50EA41047FF4E4
:1008E0000DAF52EA43057FF4EBAE12E74FEA410247
:1008F00012F5001215D211D56FF47873B3EB625272
:1009000012D94FEAC12343F0004343EA505311F098
:10091000004F23FA02F018BF404270474FF000002A
:10092000704750EA013005D111F0004008BF6FF068
:10093000004070474FF00000704700BF4FEA41028F
:10094000B2F1E04324BFB3F5001CDCF1FE5C0DD92D
:1009500001F0004C4FEAC0024CEA5070B2F1004F77
:1009600040EB830008BF20F00100704711F0804F7A
:1009700021D113F13872BCBF01F00040704741F43F
:1009800080114FEA5252C2F11802C2F1200C10FA43
:100990000CF320FA02F018BF40F001004FEAC12327
:1009A0004FEAD32303FA0CFC40EA0C0023FA02F3CB
:1009B0004FEA4303CCE77FEA625307D150EA0133A1
:1009C0001EBF4FF0FE4040F44000704701F0004071
:1009D00040F0FE4040F40000704700BF80F000404F
:1009E00002E000BF81F0004142001FBF5FEA410307
:1009F00092EA030F7FEA226C7FEA236C6AD04FEA07
:100A00001262D2EB1363C1BFD2184140484041404B
:100A1000B8BF5B42192B88BF704710F0004F40F4FD
:100A2000000020F07F4018BF404211F0004F41F419
:100A3000000121F07F4118BF494292EA030F3FD0E5
:100A4000A2F1010241FA03FC10EB0C00C3F12003F8
:100A500001FA03F100F0004302D5494260EB400087
:100A6000B0F5000F13D3B0F1807F06D340084FEAF2
:100A7000310102F10102FE2A51D2B1F1004F40EBE7
:100A8000C25008BF20F0010040EA0300704749004F
:100A900040EB0000013A28BFB0F5000FEDD2B0FAEC
:100AA00080FCACF1080CB2EB0C0200FA0CF0AABF0F
:100AB00000EBC25052421843BCBFD04018437047AD
:100AC00092F0000F81F4000106BF80F400000132B3
:100AD000013BB5E74FEA41037FEA226C18BF7FEA8A
:100AE000236C21D092EA030F04D092F0000F08BFCC
:100AF0000846704790EA010F1CBF0020704712F0B3
:100B00007F4F04D1400028BF40F00040704712F1F1
:100B100000723CBF00F50000704700F0004343F056
:100B2000FE4040F4000070477FEA226216BF08468C
:100B30007FEA23630146420206BF5FEA412390EA4F
:100B4000010F40F4800070474FF0000304E000BF45
:100B500010F0004348BF40425FEA000C08BF7047F6
:100B600043F0964301464FF000001CE050EA0102BA
:100B700008BF70474FF000030AE000BF50EA0102CF
:100B800008BF704711F0004302D5404261EB4101BC
:100B90005FEA010C02BF84460146002043F0B643E1
:100BA00008BFA3F18053A3F50003BCFA8CF2083A06
:100BB000A3EBC25310DB01FA02FC634400FA02FC0F
:100BC000C2F12002BCF1004F20FA02F243EB020016
:100BD00008BF20F00100704702F1200201FA02FC78
:100BE000C2F1200250EA4C0021FA02F243EB02006B
:100BF00008BF20EADC7070474FF0FF0C1CEAD052AF
:100C00001EBF1CEAD15392EA0C0F93EA0C0F6FD06F
:100C10001A4480EA010C400218BF5FEA41211ED04D
:100C20004FF0006343EA501043EA5111A0FB013139
:100C30000CF00040B1F5000F3EBF490041EAD3710E
:100C40005B0040EA010062F17F02FD2A1DD8B3F18A
:100C5000004F40EBC25008BF20F00100704790F0F9
:100C6000000F0CF0004C08BF49024CEA502040EA4B
:100C700051207F3AC2BFD2F1FF0340EAC250704711
:100C800040F400004FF00003013A5DDC12F1190F4F
:100C9000DCBF00F000407047C2F10002410021FAC1
:100CA00002F1C2F1200200FA02FC5FEA310040F1D9
:100CB000000053EA4C0308BF20EADC70704792F052
:100CC000000F00F0004C02BF400010F4000F013A8A
:100CD000F9D040EA0C0093F0000F01F0004C02BF85
:100CE000490011F4000F013BF9D041EA0C018FE7F4
:100CF0000CEAD15392EA0C0F18BF93EA0C0F0AD0FA
:100D000030F0004C18BF31F0004CD8D180EA01001F
:100D100000F00040704790F0000F17BF90F0004FB8
:100D2000084691F0000F91F0004F14D092EA0C0F9A
:100D300001D142020FD193EA0C0F03D14B0218BF2D
:100D4000084608D180EA010000F0004040F0FE4073
:100D500040F40000704740F0FE4040F4400070470F
:100D60004FF0FF0C1CEAD0521EBF1CEAD15392EA8E
:100D70000C0F93EA0C0F69D0A2EB030280EA010C7E
:100D800049024FEA402037D04FF0805343EA111117
:100D900043EA10130CF000408B4238BF5B0042F175
:100DA0007D024FF4000C8B4224BF5B1A40EA0C001A
:100DB000B3EB510F24BFA3EB510340EA5C00B3EB4C
:100DC000910F24BFA3EB910340EA9C00B3EBD10F3A
:100DD00024BFA3EBD10340EADC001B0118BF5FEA8C
:100DE0001C1CE0D1FD2A3FF650AF8B4240EBC250B5
:100DF00008BF20F0010070470CF0004C4CEA502076
:100E00007F32C2BFD2F1FF0340EAC250704740F4C4
:100E100000004FF00003013A37E792F0000F00F0B6
:100E2000004C02BF400010F4000F013AF9D040EA34
:100E30000C0093F0000F01F0004C02BF490011F4C8
:100E4000000F013BF9D041EA0C0195E70CEAD153C0
:100E500092EA0C0F08D142027FF47DAF93EA0C0FA7
:100E60007FF470AF084676E793EA0C0F04D14B028B
:100E70003FF44CAF08466EE730F0004C18BF31F03D
:100E8000004CCAD130F000427FF45CAF31F0004337
:100E90007FF43CAF5FE700BF4FF0FF3C06E000BFD0
:100EA0004FF0010C02E000BF4FF0010C4DF804CDF3
:100EB0004FEA40024FEA41037FEA226C18BF7FEA03
:100EC000236C11D001B052EA530C18BF90EA010F05
:100ED00058BFB2EB030088BFC81738BF6FEAE17094
:100EE00018BF40F0010070477FEA226C02D15FEA30
:100EF000402C05D17FEA236CE4D15FEA412CE1D09C
:100F00005DF8040B704700BF844608466146FFE762
:100F10000FB5FFF7C9FF002848BF10F1000F0FBD44
:100F20004DF808EDFFF7F4FF0CBF012000205DF83D
:100F300008FB00BF4DF808EDFFF7EAFF34BF0120C2
:100F400000205DF808FB00BF4DF808EDFFF7E0FF5B
:100F500094BF012000205DF808FB00BF4DF808EDAC
:100F6000FFF7D2FF94BF012000205DF808FB00BF0F
:100F70004DF808EDFFF7C8FF34BF012000205DF8F1
:100F800008FB00BF4FEA4002B2F1FE4F0FD34FF013
:100F90009E03B3EB12620DD94FEA002343F00043E6
:100FA00010F0004F23FA02F018BF404270474FF094
:100FB0000000704712F1610F01D1420205D110F01B
:100FC000004008BF6FF0004070474FF000007047CE
:100FD00080B485B000AF78600B46FB700023FB81C6
:100FE00000237B730AE07B7B7A6813441B789AB2F8
:100FF000FB891344FB817B7B01337B737A7BFB781A
:101000009A42F0D3FB89DBB218461437BD4680BC48
:101010007047000080B582B000AF0346FB710E4BF5
:10102000FA221A700C4AFB7953700B4B31229A70DA
:10103000094B0022DA7003210748FFF7C9FF034676
:101040001A46054BDA7004220349044803F0A2FF54
:1010500000BF0837BD4680BDF000002024020020FC
:1010600080B485B000AF78607B681B781A067B6817
:1010700001331B781B041A437B6802331B781B0265
:1010800013437A68033212781343FB60FB681846F7
:101090001437BD4680BC7047B0B586B000AF7860ED
:1010A0000120FFF7B7FF6A4B1B78002B35D0684B48
:1010B00000221A706748FFF7D3FF03461846FFF770
:1010C00047FD03467B617869FFF7A6F95EA3D3E984
:1010D0000023FFF7F9F902460B46104619464FF078
:1010E00000025D4BFFF7F0F902460B4614461D4621
:1010F0005A4B1B881846FFF77DF902460B462046DF
:101100002946FFF729F802460B4610461946FFF715
:10111000EDFB03461AB2524B1A80514BB3F9003023
:10112000504A82FB03125211DB17D31A1BB2002B59
:10113000B8BF5B429BB23B61494BB3F90030494AAF
:1011400082FB03125111DA178A1A642101FB02F2A1
:101150009B1A1BB2002BB8BF5B429BB2FB60FA68C4
:10116000414B83FB02139910D317C91A0B469B00FE
:101170000B445B00D11ACAB27B681A70FB683A4A0A
:1011800082FB03129210DB17D21A374B83FB021338
:101190009910D317C91A0B469B000B445B00D11A58
:1011A0007B680133CAB21A703A692F4B83FB021372
:1011B0009910D317C91A0B469B000B445B00D11A38
:1011C0007B680233CAB21A703B69274A82FB03125A
:1011D0009210DB17D21A244B83FB02139910D317FA
:1011E000C91A0B469B000B445B00D11A7B68033382
:1011F000CAB21A703B691B4A82FB03125211DB17F9
:10120000D21A194B83FB02139910D317C91A0B4634
:101210009B000B445B00D11A7B680433CAB21A707E
:101220000F4BB3F90030002B04DA7B6805332D2215
:101230001A7003E07B6805332B221A7000BF183741
:10124000BD46B0BDAFF30080EB0CDF5B20C2593F61
:10125000100100200D00002000005940E80000208F
:10126000E60000201F85EB516766666600000000FF
:1012700080B584B000AF78605F4B1B685B6A1AB2C0
:101280005E4B1A805D4B1B881BB21846FFF7B2F805
:1012900057A3D3E90023FFF717F902460B46104680
:1012A00019464FF00002564BFFF70EF902460B4667
:1012B00010461946FFF71AFB03461AB2514B1A8023
:1012C000504BB3F90030504A82FB03125211DB1726
:1012D000D31A1BB2002BB8BF5B429BB2FB60494BD9
:1012E000B3F90030484A82FB03125111DA178A1A07
:1012F000642101FB02F29B1A1BB2002BB8BF5B42B8
:101300009BB2BB60BA68414B83FB02139910D317A1
:10131000C91A0B469B000B445B00D11ACAB27B680A
:101320001A70BB68394A82FB03129210DB17D21A7B
:10133000364B83FB02139910D317C91A0B469B0037
:101340000B445B00D11A7B680133CAB21A70FA6889
:101350002E4B83FB02139910D317C91A0B469B001F
:101360000B445B00D11A7B680233CAB21A70FB6867
:10137000264A82FB03129210DB17D21A234B83FBFF
:1013800002139910D317C91A0B469B000B445B003C
:10139000D11A7B680333CAB21A70FB681A4A82FBFF
:1013A00003125211DB17D21A184B83FB0213991048
:1013B000D317C91A0B469B000B445B00D11A7B68FC
:1013C0000433CAB21A700F4BB3F90030002B04DAA1
:1013D0007B6805332D221A7003E07B6805332B22CE
:1013E0001A7000BF1037BD4680BD00BFAFF300804C
:1013F000B81E85EB51B8BE3F9401002020010020AB
:1014000000005940E60000201F85EB5167666666C4
:1014100080B483B000AF0346FB80084B1B680022FA
:101420005A6200BF054B1B685A6AFB889A42F9D37F
:1014300000BF00BF0C37BD4680BC7047DC010020F8
:1014400080B584B000AF03460A46FB801346BB80DC
:1014500001224FF48061194802F04CFA0023FB810D
:1014600022E001220221154802F044FABB88184606
:10147000FFF7CEFF00220221104802F03BFABB88A2
:101480001846FFF7C5FF0E4B1B78002B09D00C4BFD
:1014900000221A700B4B1B78002B02D00A48FFF772
:1014A000FBFDFB890133FB81FA89FB889A42D8D383
:1014B00000BF00BF1037BD4680BD00BF000C01401B
:1014C0001A010020E40000200000002080B584B054
:1014D00000AF03460A46FB801346BB8000224FF450
:1014E0008061194802F006FA0023FB8122E0012204
:1014F0000221154802F0FEF9BB881846FFF788FF65
:1015000000220221104802F0F5F9BB881846FFF7C7
:101510007FFF0E4B1B78002B09D00C4B00221A705A
:101520000B4B1B78002B02D00A48FFF7B5FDFB8957
:101530000133FB81FA89FB889A42D8D300BF00BFF0
:101540001037BD4680BD00BF000C01401A010020CD
:10155000E40000200000002080B584B000AF786077
:10156000396001224FF40051134802F0C3F90023FF
:10157000FB6018E000224FF400410F4802F0BAF976
:101580003B689BB21846FFF743FF01224FF400412E
:10159000094802F0AFF93B689BB21846FFF738FFE5
:1015A000FB680133FB60FB687A689A42E2D800BFAF
:1015B00000BF1037BD4680BD000C014080B584B02F
:1015C00000AF7860396000224FF40051134802F0F8
:1015D00091F90023FB6018E000224FF400410F480E
:1015E00002F088F93B689BB21846FFF711FF012211
:1015F0004FF40041094802F07DF93B689BB2184660
:10160000FFF706FFFB680133FB60FB687A689A42CC
:10161000E2D800BF00BF1037BD4680BD000C0140BE
:1016200090B587B000AF7860774B1B7883F00103EB
:10163000DBB2002B64D075497868FFF7DDFA03460A
:1016400073491846FFF7D8FA034672491846FFF760
:1016500087FB0346FB60F868FFF794FC03461846D7
:10166000FFF776FA03461946F868FFF7BBF9034619
:101670001A46694B1B6819461046FFF7B5F9034631
:101680001A46654B1A60644B1B681846FFF77AFCD4
:1016900003461846FFF75CFA0346F9681846FFF759
:1016A000A3F903461846FFF76DFC0346BB605A4B8F
:1016B0001C68594B1B681846FFF764FC0346184624
:1016C000FFF746FA034619462046FFF78BF9034613
:1016D0001A46514B1A60BB68002B08DDBB68002B13
:1016E000B8BF5B420A211846FFF736FF81E0BB68AE
:1016F000002BB8BF5B420A211846FFF75FFF78E076
:1017000046497868FFF778FA03461846FEF784FEE4
:101710003BA3D3E90023FEF7D7FE02460B46104653
:1017200019464FF000023E4BFEF7F8FF02460B460B
:1017300010461946FFF702F903467B617869FFF707
:1017400021FC03461846FFF703FA03461946786959
:10175000FFF748F903461A462F4B1B6819461046F7
:10176000FFF742F903461A462B4B1A602A4B1B68B7
:101770001846FFF707FC03461846FFF7E9F903464A
:1017800079691846FFF730F903461846FFF7FAFB68
:1017900003463B61204B1C681F4B1B681846FFF734
:1017A000F1FB03461846FFF7D3F9034619462046D6
:1017B000FFF718F903461A46174B1A604FF000015D
:1017C0007869FFF7D5FB0346002B09D03B69002B56
:1017D000B8BF5B429BB264211846FFF731FE08E0B8
:1017E0003B69002BB8BF5B429BB264211846FFF7F0
:1017F0006DFE00BF1C37BD4690BD00BFAFF300803B
:101800006666666666662B40E40000200000704154
:1018100000007A440000B4430C01002000004C4555
:101820000080764080B582B000AF78600A222449FB
:10183000244803F0E4FB0346002B3CD1204B1B78EB
:10184000FB2B2FD11E4B5B78012B2BD11C4B9B7894
:10185000312B27D11C4B01221A70194BDB78FF2B3F
:1018600029D1174BDA78194BDA70154B1A79174BC7
:101870001A71134B5A79154B5A71114B9A79134BB4
:101880009A710F4BDA79114BDA710D4B1A7A0F4BB3
:101890001A7209210D48FFF79BFB03461A460B4BB2
:1018A0005A7208E00A220021054804F06BF9012071
:1018B000FFF7B0FBFFE700BF0837BD4680BD00BFA4
:1018C000F400002024020020100100200800002065
:1018D00080B483B000AF78607B681B68134A934282
:1018E0001FD1134B1B780133DAB2114B1A70114B15
:1018F0001B780133DAB20F4B1A700D4B1B78032B98
:1019000005D10D4B01221A70094B00221A70094BA8
:101910001B78012B05D1094B01221A70054B0022BF
:101920001A7000BF0C37BD4680BC7047002C0140C8
:101930001E0100201F0100201C0100201D010020AD
:1019400080B483B000AF78607B681B68B3F1804FD0
:1019500005D1054B1B685B6A1AB2044B1A8000BFA5
:101960000C37BD4680BC7047940100202001002048
:1019700080B582B000AF78602B4B2C4A002178688C
:1019800001F00BF90346002B4AD1284B1B68002BB2
:101990001FD0082B44D1244B1A78254B1A70224BA8
:1019A0005A78234B5A70204B9A78214B9A701E4BD1
:1019B000DA781F4BDA701C4B1A791D4B1A711A4BCF
:1019C0005A791B4B5A714FF400511A4801F0AAFF83
:1019D00026E0154B1B78732B02D1174B01221A708E
:1019E000114B1B78342B02D1144B01221A700E4B71
:1019F0001B78722B13D14FF0804300225A62104B98
:101A000000221A800F4BB3F900309AB20E4B1A80A5
:101A10000C4B00221A800D4B4FF000021A6000BFE1
:101A200000BF0837BD4680BD00010020A000002097
:101A300014010020001001401B0100201A010020A9
:101A400020010020E6000020E8000020EC0000203B
:101A500080B584B000AF00F043FD00F0E7F800F07F
:101A6000B7FA00F099F900F0E7F900F039FA00F060
:101A700023F900F083FA5A4800F07CFF022158480D
:101A800001F0ACF9574802F0C7FB574802F00EFCD2
:101A90000A225649564803F0B2FA642000F082FD4B
:101AA0000421544802F002FE0421524802F050FC86
:101AB00001224FF48041504801F01CFF01224FF4F5
:101AC00080514D4801F016FF01224FF400414A4871
:101AD00001F010FF01224FF40051474801F00AFFC6
:101AE00001220421454801F005FF01220821434855
:101AF00001F000FF424B1B78002B2DD0404B002201
:101B00001A70404B1B78002B26D03E4B00221A70D7
:101B10003D4803F0ABFF03461846FFF719F80346AC
:101B2000FB603A49F868FFF71BF903461A46384B41
:101B30001B6819461046FEF755FF0346BB60B868A0
:101B4000FFF76EFD324B1B68B9681846FEF74CFF75
:101B500003461A462E4B1A602E4B1B78002BC9D019
:101B60002D4B1B78002BC5D02A4B00221A702A4B14
:101B700000221A70294B1B7883F00103DBB2002B83
:101B800003D02748FFF774FB02E02548FFF784FAEB
:101B9000244B08221A60244B214A2249104800F0A5
:101BA0002DFF0346002B03D10821144801F0BAFE93
:101BB0004FF49670FFF72CFC1A4B00221A60352365
:101BC000FB71FA1D184B1749054800F017FF034633
:101BD000002B8FD10421094801F0A4FE8AE700BF41
:101BE00024010020DC0100204C010020F400002032
:101BF0002402002094010020000C01400008014054
:101C00001C0100201B010020140100200000C8421C
:101C1000EC0000201A0100201D010020E40000203B
:101C200000000020880000200801002080B590B04E
:101C300000AF07F1180328220021184603F0A2FF85
:101C40003B1D00221A605A609A60DA601A61012313
:101C5000BB614FF48033FB6100233B620123BB6215
:101C600002237B634FF48033BB634FF4E013FB63C9
:101C700007F11803184601F06FFE0346002B01D050
:101C800000F03EFA0F237B600223BB600023FB6061
:101C90004FF480633B6100237B613B1D02211846AA
:101CA00002F0DCF80346002B01D000F029FA00BF57
:101CB0004037BD4680BD000080B500AF314B324A91
:101CC0001A60304B06225A602E4B00229A602D4B30
:101CD0000022DA602B4B4FF480321A61294B4FF40B
:101CE00000125A61274B00221A76264B00225A76A0
:101CF000244B00229A76234B0022DA76214B0022D5
:101D00001A77204B00225A771E4800F06FFC0346DA
:101D1000002B01D000F0F4F91C4B01221A621B4B7E
:101D200001225A61194B00221A61184B4FF480723C
:101D30001A60164B00225A60144B154A9A60134BD6
:101D40000022DA60114B00229A61104B0122DA6105
:101D50000E4B01225A620D490A4800F042FD03462B
:101D6000002B01D000F0CCF90A4B0022DA60094BBD
:101D700000229A60074B06221A61064B08221A605D
:101D800000BF80BD2401002000640040BC00002092
:101D9000E0FE01008800002080B586B000AF07F1AA
:101DA000080300221A605A609A60DA603B460022FB
:101DB0001A605A601E4B1F4A1A601D4B47225A6018
:101DC0001B4B00229A601A4B40F2E732DA60184B44
:101DD00000221A61164B00225A61154B00229A61AB
:101DE000134802F0C9F90346002B01D000F088F92E
:101DF0004FF48053BB6007F1080319460C4802F00A
:101E00000BFE0346002B01D000F07AF900233B6063
:101E100000237B603B461946054802F0FBFF034662
:101E2000002B01D000F06CF900BF1837BD4680BD13
:101E30004C010020002C014080B58CB000AF07F1B0
:101E40000C0324220021184603F09CFE3B1D0022B7
:101E50001A605A60214B4FF080421A601F4B0022DB
:101E60005A601E4B00229A601C4B4FF6FF72DA60DC
:101E70001A4B00221A61194B00229A610323FB605E
:101E800002233B6101237B610023BB610023FB61D3
:101E900002233B6201237B620023BB620023FB62BF
:101EA00007F10C0319460D4802F05EFB0346002BB8
:101EB00001D000F025F910237B608023BB603B1D1F
:101EC0001946064802F0A6FF0346002B01D000F099
:101ED00017F900BF3037BD4680BD00BF9401002018
:101EE00080B586B000AF07F1080300221A605A607F
:101EF0009A60DA603B4600221A605A601D4B1E4A07
:101F00001A601C4B47225A601A4B00229A60194BE8
:101F10004FF6FF72DA60174B00221A61154B002250
:101F20009A61144802F028F90346002B01D000F012
:101F3000E7F84FF48053BB6007F1080319460D48DA
:101F400002F06AFD0346002B01D000F0D9F800230F
:101F50003B6000237B603B461946064802F05AFF6F
:101F60000346002B01D000F0CBF800BF1837BD4668
:101F700080BD00BFDC0100200008004080B500AF3C
:101F8000114B124A1A60104B4FF4E1325A600E4B5B
:101F900000229A600C4B0022DA600B4B00221A617F
:101FA000094B0C225A61084B00229A61064B002211
:101FB000DA61054802F09EFF0346002B01D000F0D5
:101FC0009FF800BF80BD00BF240200200038014000
:101FD00080B588B000AF07F1100300221A605A6084
:101FE0009A60DA60424B9B69414A43F01003936167
:101FF0003F4B9B6903F01003FB60FB683C4B9B6904
:102000003B4A43F020039361394B9B6903F0200363
:10201000BB60BB68364B9B69354A43F00403936150
:10202000334B9B6903F004037B607B68304B9B69F7
:102030002F4A43F0080393612D4B9B6903F008037B
:102040003B603B6800224FF400512A4801F052FCEB
:102050000022CC21284801F04DFC002240F603412B
:10206000264801F047FC01224FF47041234801F05B
:1020700041FC4FF400533B6101237B610023BB61B2
:102080000323FB6107F1100319461A4801F0AEFA69
:10209000CC233B6101237B610023BB610223FB61F5
:1020A00007F110031946144801F0A0FA40F6034363
:1020B0003B6101237B610023BB610223FB6107F1CC
:1020C000100319460D4801F091FA4FF470433B613B
:1020D00001237B610023BB610323FB6107F1100334
:1020E0001946064801F082FA00BF2037BD4680BD80
:1020F000001002400010014000080140000C0140A7
:1021000080B400AF72B600BFFEE7000080B584B0B7
:1021100000AF164B9B69154A43F001039361134BC3
:102120009B6903F00103BB60BB68104BDB690F4A7E
:1021300043F08053D3610D4BDB6903F080537B6028
:102140007B68072001F05EF9094B5B68FB60FB6868
:1021500023F0E063FB60FB6843F00073FB60044A1C
:10216000FB68536000BF1037BD4680BD00100240C1
:102170000000014080B58AB000AF786007F1140319
:1021800000221A605A609A60DA607B681B68294AEC
:1021900093424BD1284BDB69274A43F00073D3614C
:1021A000254BDB6903F000733B613B69224B9B6964
:1021B000214A43F0080393611F4B9B6903F0080316
:1021C000FB60FB684FF480737B610023BB610023DD
:1021D000FB6107F114031946184801F007FA4FF4A0
:1021E00000737B610223BB6103233B6207F114038D
:1021F0001946124801F0FAF9114B5B687B627B6A61
:1022000023F4C0437B627B6A43F0E0637B627B6ABA
:1022100043F480437B620A4A7B6A536000220021B8
:10222000142001F0FAF8142001F013F900BF283748
:10223000BD4680BD0064004000100240000C01401B
:102240000000014080B584B000AF78607B681B68F7
:10225000164A934214D1164B9B69154A43F4006306
:102260009361134B9B6903F40063FB60FB680022DE
:102270000021192001F0D1F8192001F0EAF810E04E
:102280007B681B680B4A93420BD1094BDB69084AF8
:1022900043F00403D361064BDB6903F00403BB6026
:1022A000BB6800BF1037BD4680BD00BF002C014099
:1022B000001002400008004080B588B000AF786090
:1022C00007F1100300221A605A609A60DA607B6896
:1022D0001B68B3F1804F2BD1174BDB69164A43F0D3
:1022E0000103D361144BDB6903F00103FB60FB685E
:1022F000114B9B69104A43F0040393610E4B9B6999
:1023000003F00403BB60BB6803233B6100237B61D4
:102310000123BB6107F110031946084801F066F973
:10232000002200211C2001F078F81C2001F091F817
:1023300000BF2037BD4680BD0010024000080140AC
:1023400080B588B000AF786007F1100300221A60F2
:102350005A609A60DA607B681B68204A934239D1E0
:102360001F4B9B691E4A43F4804393611C4B9B693E
:1023700003F48043FB60FB68194B9B69184A43F0E8
:1023800004039361164B9B6903F00403BB60BB68B5
:102390004FF400733B6102237B610323FB6107F170
:1023A000100319460F4801F021F94FF480633B6197
:1023B00000237B610023BB6107F110031946094824
:1023C00001F014F900220021252001F026F8252033
:1023D00001F03FF800BF2037BD4680BD0038014006
:1023E000001002400008014080B400AFFEE780B456
:1023F00000AFFEE780B400AFFEE780B400AFFEE7B9
:1024000080B400AFFEE780B400AF00BFBD4680BC23
:10241000704780B400AF00BFBD4680BC704780B439
:1024200000AF00BFBD4680BC704780B500AF00F074
:102430009DF800BF80BD000080B500AF024800F0ED
:10244000F2FC00BF80BD00BF2401002080B500AFBA
:10245000024802F0D9F900BF80BD00BF4C01002046
:1024600080B500AF024802F0CFF900BF80BD00BFC9
:102470009401002080B500AF024802F0E5FD00BFE6
:1024800080BD00BF2402002080B400AF00BFBD4665
:1024900080BC70470C480D490D4A002302E0D45817
:1024A000C4500433C4188C42F9D30A4A0A4C00239E
:1024B00001E013600432A242FBD3FFF7E5FF03F013
:1024C0006FFBFFF7C5FA7047000000206C0000208A
:1024D000345D00086C000020A8030020FEE7000027
:1024E00080B500AF084B1B68074A43F01003136028
:1024F000032000F087FF002000F008F8FFF706FE39
:102500000023184680BD00BF0020024080B582B085
:1025100000AF7860124B1A68124B1B7819464FF4C3
:102520007A73B3FBF1F3B2FBF3F3184600F09FFFAD
:102530000346002B01D001230EE07B680F2B0AD845
:10254000002279684FF0FF3000F067FF064A7B6891
:102550001360002300E0012318460837BD4680BD04
:1025600010000020180000201400002080B400AFEC
:10257000054B1B781A46054B1B681344034A13602E
:1025800000BFBD4680BC7047180000206C020020D0
:1025900080B400AF024B1B681846BD4680BC704734
:1025A0006C02002080B584B000AF7860FFF7F0FFC8
:1025B000B8607B68FB60FB68B3F1FF3F05D00A4B56
:1025C0001B781A46FB681344FB6000BFFFF7E0FF6F
:1025D0000246BB68D31AFA689A42F7D800BF00BF18
:1025E0001037BD4680BD00BF1800002080B584B004
:1025F00000AF78607B68002B01D10123EDE07B68A0
:1026000093F82030DBB2002B02D17868FFF7B2FDDF
:102610007B681B681A687B681B6842F001021A60BD
:10262000FFF7B6FFF86012E0FFF7B2FF0246FB6863
:10263000D31A0A2B0BD97B685B6A43F400327B68A0
:102640005A627B68052283F820200123C5E07B685D
:102650001B685B6803F00103002BE5D07B681B68F7
:102660001A687B681B6822F002021A60FFF790FF6D
:10267000F86012E0FFF78CFF0246FB68D31A0A2BC2
:102680000BD97B685B6A43F400327B685A627B68D3
:10269000052283F8202001239FE07B681B685B688C
:1026A00003F00203002BE5D17B681B7E012B08D1D0
:1026B0007B681B681A687B681B6842F080021A609E
:1026C00007E07B681B681A687B681B6822F0800241
:1026D0001A607B685B7E012B08D17B681B681A68D7
:1026E0007B681B6842F040021A6007E07B681B6849
:1026F0001A687B681B6822F040021A607B689B7E28
:10270000012B08D17B681B681A687B681B6842F044
:1027100020021A6007E07B681B681A687B681B68E8
:1027200022F020021A607B68DB7E012B08D17B68D7
:102730001B681A687B681B6822F010021A6007E0A9
:102740007B681B681A687B681B6842F010021A607D
:102750007B681B7F012B08D17B681B681A687B682C
:102760001B6842F008021A6007E07B681B681A6861
:102770007B681B6822F008021A607B685B7F012B74
:1027800008D17B681B681A687B681B6842F00402EA
:102790001A6007E07B681B681A687B681B6822F078
:1027A00004021A607B689A687B68DB681A437B685E
:1027B0001B691A437B685B6942EA03017B685B68BB
:1027C0005A1E7B681B680A43DA617B6800225A62E2
:1027D0007B68012283F82020002318461037BD466D
:1027E00080BD80B487B000AF786039607B681B68BB
:1027F0007B617B6893F82030FB74FB7C012B03D05A
:10280000FB7C022B40F0AA807B69D3F8003243F0B6
:1028100001027B69C3F800223B685B6903F01F0378
:10282000012202FA03F3FB607B69D3F81C22FB68E8
:10283000DB431A407B69C3F81C223B68DB69002B31
:1028400023D17B69D3F80C22FB68DB431A407B69F8
:10285000C3F80C223B68DB6819043B685B689BB2D9
:102860003A68526919437B69483243F832103B6831
:102870009B6819043B681B689AB23B685B690A4312
:1028800079694833DB000B445A603B68DB69012BF4
:1028900022D17B69D3F80C22FB681A437B69C3F809
:1028A0000C223B681B6819043B685B689BB23A6862
:1028B000526919437B69483243F832103B689B6880
:1028C00019043B68DB689AB23B685B690A43796923
:1028D0004833DB000B445A603B689B69002B09D1ED
:1028E0007B69D3F80422FB68DB431A407B69C3F899
:1028F000042207E07B69D3F80422FB681A437B6952
:10290000C3F804223B681B69002B09D17B69D3F80B
:102910001422FB68DB431A407B69C3F8142207E0EA
:102920007B69D3F81422FB681A437B69C3F814222D
:102930003B681B6A012B07D17B69D3F81C22FB681B
:102940001A437B69C3F81C227B69D3F8003223F059
:1029500001027B69C3F80022002306E07B685B6A02
:1029600043F480227B685A62012318461C37BD4617
:1029700080BC704780B584B000AF78607B6893F806
:102980002030DBB2012B2ED17B68022283F820207D
:102990007B681B681A687B681B6822F001021A605A
:1029A000FFF7F6FDF86012E0FFF7F2FD0246FB6864
:1029B000D31A0A2B0BD97B685B6A43F400327B681D
:1029C0005A627B68052283F82020012312E07B688D
:1029D0001B685B6803F00103002BE5D17B680022D4
:1029E0005A62002306E07B685B6A43F400227B683E
:1029F0005A62012318461037BD4680BD80B489B0A5
:102A000000AFF860B9607A603B60FB6893F82030F3
:102A1000FB77FB681B689B68BB61FB7F012B03D0C6
:102A2000FB7F022B40F0AD80BB6903F08063002B7D
:102A30000AD1BB6903F00063002B05D1BB6903F029
:102A40008053002B00F09580BB691B0E03F003033D
:102A50007B6101227B699A403B681A60BB689B6876
:102A6000002B0DD1BB681B685A05BB68DB68F96891
:102A700009681A437B6918331B010B441A600FE085
:102A8000BB685B68DA00BB689B681A43BB68DB689D
:102A9000F96809681A437B6918331B010B441A60F3
:102AA000FB681968BB681A697B6918331B010B4402
:102AB00004331A60BB681B7D012B11D1FB681A68B7
:102AC0007B6918331B01134404331B68FA681168CF
:102AD00043F480727B6918331B010B4404331A6082
:102AE0007B6807331B781A067B6806331B781B0448
:102AF0001A437B6805331B781B0213437A68043240
:102B000012781046FA68116843EA00027B691B01DB
:102B10000B4403F5C6731A607B6803331B781A06EF
:102B20007B6802331B781B041A437B6801331B78D4
:102B30001B0213437A6812781046FA68116843EA58
:102B400000027B691B010B4403F5C4731A60FB6828
:102B50001A687B6918331B0113441B68FA681168F3
:102B600043F001027B6918331B010B441A600023F8
:102B70000EE0FB685B6A43F40012FB685A620123B3
:102B800006E0FB685B6A43F48022FB685A6201231B
:102B900018462437BD4680BC704780B487B000AF6C
:102BA000F860B9607A603B60FB6893F82030FB7591
:102BB000FB7D012B03D0FB7D022B40F00381BB6822
:102BC000002B0ED1FB681B68DB6803F00303002BAE
:102BD00016D1FB685B6A43F40012FB685A6201235A
:102BE000F7E0FB681B681B6903F00303002B07D1A8
:102BF000FB685B6A43F40012FB685A620123E8E059
:102C0000FB681A68BB681B331B0113441B6803F085
:102C100004027B689A607B689B68002B0CD1FB6880
:102C20001A68BB681B331B0113441B685B0DC3F39D
:102C30000A027B681A600BE0FB681A68BB681B33EA
:102C40001B0113441B68DB0823F060427B685A6059
:102C5000FB681A68BB681B331B0113441B6803F035
:102C600002027B68DA60FB681A68BB681B331B01D1
:102C7000134404331B6803F00803002B03D07B6864
:102C800008221A610BE0FB681A68BB681B331B0142
:102C9000134404331B6803F00F027B681A61FB685E
:102CA0001A68BB681B331B01134404331B681B0ADF
:102CB000DAB27B689A61FB681A68BB681B331B0138
:102CC000134404331B681B0C9AB27B685A61FB687F
:102CD0001A68BB681B01134403F5DC731B68DAB286
:102CE0003B681A70FB681A68BB681B01134403F544
:102CF000DC731B681A0A3B680133D2B21A70FB6896
:102D00001A68BB681B01134403F5DC731B681A0CBB
:102D10003B680233D2B21A70FB681A68BB681B01A9
:102D2000134403F5DC731B681A0E3B680333D2B2FD
:102D30001A70FB681A68BB681B01134403F5DE7345
:102D40001A683B680433D2B21A70FB681A68BB6811
:102D50001B01134403F5DE731B681A0A3B68053335
:102D6000D2B21A70FB681A68BB681B01134403F5E2
:102D7000DE731B681A0C3B680633D2B21A70FB680C
:102D80001A68BB681B01134403F5DE731B681A0E37
:102D90003B680733D2B21A70BB68002B08D1FB68BE
:102DA0001B68DA68FB681B6842F02002DA6007E003
:102DB000FB681B681A69FB681B6842F020021A61F5
:102DC000002306E0FB685B6A43F48022FB685A62DA
:102DD000012318461C37BD4680BC704780B485B0BF
:102DE00000AF786039607B6893F82030FB73FB7B21
:102DF000012B02D0FB7B022B09D17B681B68596930
:102E00007B681B683A680A435A61002306E07B68C6
:102E10005B6A43F480227B685A62012318461437A8
:102E2000BD4680BC704780B58AB000AF7860002393
:102E30007B627B681B685B693B627B681B685B68C5
:102E4000FB617B681B689B68BB617B681B68DB68F8
:102E50007B617B681B681B693B617B681B689B69A6
:102E6000FB603B6A03F00103002B7CD0BB6903F0DD
:102E70000103002B23D07B681B6801229A60BB6989
:102E800003F00203002B03D0786800F083F916E00A
:102E9000BB6903F00403002B04D07B6A43F4006396
:102EA0007B620CE0BB6903F00803002B04D07B6A53
:102EB00043F480537B6202E0786800F086F9BB69D6
:102EC00003F48073002B24D07B681B684FF480725E
:102ED0009A60BB6903F40073002B03D0786800F09C
:102EE00062F916E0BB6903F48063002B04D07B6AAF
:102EF00043F400537B620CE0BB6903F40063002BD6
:102F000004D07B6A43F480437B6202E0786800F07F
:102F100065F9BB6903F48033002B24D07B681B6800
:102F20004FF480329A60BB6903F40033002B03D066
:102F3000786800F041F916E0BB6903F48023002BA8
:102F400004D07B6A43F400437B620CE0BB6903F46A
:102F50000023002B04D07B6A43F480337B6202E0C1
:102F6000786800F044F93B6A03F00803002B0CD0AA
:102F70007B6903F01003002B07D07B6A43F40073D6
:102F80007B627B681B681022DA603B6A03F00403F3
:102F9000002B0BD07B6903F00803002B06D07B6865
:102FA0001B680822DA60786800F02AF93B6A03F0AF
:102FB0000203002B09D07B681B68DB6803F0030366
:102FC000002B02D07868FEF7D3FC3B6A03F0400385
:102FD000002B0CD03B6903F01003002B07D07B6A59
:102FE00043F480637B627B681B6810221A613B6A32
:102FF00003F02003002B0BD03B6903F00803002BE8
:1030000006D07B681B6808221A61786800F00AF90C
:103010003B6A03F01003002B09D07B681B681B6917
:1030200003F00303002B02D0786800F0F2F83B6A4B
:1030300003F40033002B0BD0FB6903F01003002BCB
:1030400006D07B681B6810225A60786800F0F3F89D
:103050003B6A03F48033002B0BD0FB6903F00803B9
:10306000002B06D07B681B6808225A60786800F045
:10307000EBF83B6A03F40043002B7BD0FB6903F0C1
:103080000403002B72D03B6A03F48073002B08D03A
:10309000FB6803F00103002B03D07B6A43F00103BC
:1030A0007B623B6A03F40073002B08D0FB6803F0DB
:1030B0000203002B03D07B6A43F002037B623B6A6E
:1030C00003F48063002B08D0FB6803F00403002B9B
:1030D00003D07B6A43F004037B623B6A03F4006322
:1030E000002B43D0FB6803F07003002B3ED0FB683D
:1030F00003F07003602B2BD0602B2ED8502B22D0E6
:10310000502B2AD8402B19D0402B26D8302B10D04A
:10311000302B22D8102B02D0202B05D01DE07B6A4B
:1031200043F008037B6219E07B6A43F010037B6283
:1031300014E07B6A43F020037B620FE07B6A43F07C
:1031400040037B620AE07B6A43F080037B6205E018
:103150007B6A43F480737B6200E000BF7B681B687E
:103160009A697B681B6822F070029A617B681B6811
:1031700004225A607B6A002B08D07B685A6A7B6AFB
:103180001A437B685A62786800F067F800BF2837F6
:10319000BD4680BD80B483B000AF786000BF0C37FF
:1031A000BD4680BC704780B483B000AF786000BF7C
:1031B0000C37BD4680BC704780B483B000AF7860E8
:1031C00000BF0C37BD4680BC704780B483B000AFF1
:1031D000786000BF0C37BD4680BC704780B483B0B8
:1031E00000AF786000BF0C37BD4680BC704780B42C
:1031F00083B000AF786000BF0C37BD4680BC70471D
:1032000080B483B000AF786000BF0C37BD4680BC8F
:10321000704780B483B000AF786000BF0C37BD4604
:1032200080BC704780B483B000AF786000BF0C37BB
:10323000BD4680BC704780B483B000AF786000BFEB
:103240000C37BD4680BC704780B483B000AF786057
:1032500000BF0C37BD4680BC704780B483B000AF60
:10326000786000BF0C37BD4680BC704780B485B025
:1032700000AF78607B6803F00703FB600C4BDB68F2
:10328000BB60BA684FF6FF031340BB60FB681A02CD
:10329000BB68134343F0BF6343F40033BB60044A8D
:1032A000BB68D36000BF1437BD4680BC704700BF09
:1032B00000ED00E080B400AF044BDB681B0A03F0B4
:1032C00007031846BD4680BC704700BF00ED00E014
:1032D00080B483B000AF0346FB7197F90730002B31
:1032E0000BDBFB7903F01F02064997F907305B09F6
:1032F000012000FA02F241F8232000BF0C37BD463E
:1033000080BC704700E100E080B483B000AF0346AA
:103310003960FB7197F90730002B0ADB3B68DAB2A2
:103320000C4997F907301201D2B20B4483F80023FD
:103330000AE03B68DAB20849FB7903F00F03043B6B
:103340001201D2B20B441A7600BF0C37BD4680BCC6
:10335000704700BF00E100E000ED00E080B489B0FC
:1033600000AFF860B9607A60FB6803F00703FB61A7
:10337000FB69C3F10703042B28BF0423BB61FB696E
:103380000433062B02D9FB69033B00E000237B6179
:103390004FF0FF32BB6902FA03F3DA43BB681A400D
:1033A0007B699A404FF0FF317B6901FA03F3D943FF
:1033B0007B680B40134318462437BD4680BC7047DA
:1033C00080B582B000AF78607B68013BB3F1807F4D
:1033D00001D301230FE00A4A7B68013B53600F21B0
:1033E0004FF0FF30FFF790FF054B00229A60044B2F
:1033F00007221A60002318460837BD4680BD00BF6B
:1034000010E000E080B582B000AF78607868FFF728
:103410002DFF00BF0837BD4680BD80B586B000AF28
:103420000346B9607A60FB7300237B61FFF742FFBC
:1034300078617A68B9687869FFF790FF024697F972
:103440000F3011461846FFF75FFF00BF1837BD4623
:1034500080BD80B582B000AF0346FB7197F907309D
:103460001846FFF735FF00BF0837BD4680BD80B561
:1034700082B000AF78607868FFF7A2FF0346184675
:103480000837BD4680BD80B485B000AF78600023AA
:10349000FB737B6893F82130DBB2022B08D07B688A
:1034A00004229A637B68002283F82020012320E015
:1034B0007B681B681A687B681B6822F00E021A6022
:1034C0007B681B681A687B681B6822F001021A601F
:1034D0007B681A6C7B68DB6B012101FA02F25A608F
:1034E0007B68012283F821207B68002283F820205A
:1034F000FB7B18461437BD4680BC704780B584B04E
:1035000000AF78600023FB737B6893F82130DBB257
:10351000022B05D07B6804229A630123FB7351E0E0
:103520007B681B681A687B681B6822F00E021A60B1
:103530007B681B681A687B681B6822F001021A60AE
:103540007B681B68224A934229D07B681B68214A0A
:10355000934222D07B681B681F4A93421AD07B6833
:103560001B681E4A934212D07B681B681C4A934218
:103570000AD07B681B681B4A934202D14FF4801328
:103580000EE04FF080730BE04FF4803308E04FF40F
:10359000805305E04FF4807302E0102300E0012324
:1035A000114A53607B68012283F821207B68002246
:1035B00083F820207B685B6B002B03D07B685B6B00
:1035C00078689847FB7B18461037BD4680BD00BF22
:1035D000080002401C00024030000240440002404B
:1035E000580002406C0002400000024080B48BB0E2
:1035F00000AF7860396000237B6200233B6269E1A1
:1036000001227B6A02FA03F3FB613B681B68FA69DB
:103610001340BB61BA69FB699A4240F058813B682C
:103620005B689A4A93425ED0984A934275D8984A0A
:10363000934258D0964A93426FD8964A934252D0BA
:10364000944A934269D8944A93424CD0924A934206
:1036500063D8924A934246D0904A93425DD8122B47
:103660002AD8122B59D801A252F823F0E7360008C5
:10367000C1360008D3360008153700081B3700088C
:103680001B3700081B3700081B3700081B370008D2
:103690001B3700081B3700081B3700081B370008C2
:1036A0001B3700081B3700081B3700081B370008B2
:1036B000C9360008DD360008794A934213D02CE061
:1036C0003B68DB683B6229E03B68DB6804333B62B4
:1036D00024E03B68DB6808333B621FE03B68DB6843
:1036E0000C333B621AE03B689B68002B02D1042339
:1036F0003B6213E03B689B68012B05D108233B62CA
:103700007B68FA691A6109E008233B627B68FA6901
:103710005A6103E000233B6200E000BFBB69FF2B5E
:1037200001D87B6801E07B6804337B61BB69FF2BB8
:1037300002D87B6A9B0002E07B6A083B9B003B61EE
:103740007B691A680F213B6901FA03F3DB431A40D6
:10375000396A3B6901FA03F31A437B691A603B68D3
:103760005B6803F08053002B00F0B1804D4B9B69E8
:103770004C4A43F0010393614A4B9B6903F00103F8
:10378000BB60BB68484A7B6A9B08023352F823300F
:10379000FB607B6A03F003039B000F2202FA03F332
:1037A000DB43FA681340FB607B68404A934213D0C6
:1037B0007B683F4A93420DD07B683E4A934207D0D4
:1037C0007B683D4A934201D1032306E0042304E0D1
:1037D000022302E0012300E000237A6A02F00302E0
:1037E00092009340FA681343FB602F497B6A9B0861
:1037F0000233FA6841F823203B685B6803F48013C6
:10380000002B06D02D4B9A682C49BB6913438B6063
:1038100006E02A4B9A68BB69DB43284913408B605A
:103820003B685B6803F40013002B06D0234BDA6877
:103830002249BB691343CB6006E0204BDA68BB69C1
:10384000DB431E491340CB603B685B6803F40033E5
:10385000002B06D0194B5A681849BB6913434B60BB
:1038600006E0164B5A68BB69DB43144913404B60B2
:103870003B685B6803F48033002B21D00F4B1A6840
:103880000E49BB6913430B6021E000BF00003210FA
:103890000000311000002210000021100000121062
:1038A000000011100010024000000140000801401B
:1038B000000C0140001001400014014000040140D0
:1038C0000B4B1A68BB69DB43094913400B607B6AE9
:1038D00001337B623B681A687B6A22FA03F3002B90
:1038E0007FF48EAE00BF00BF2C37BD4680BC704752
:1038F0000004014080B483B000AF78600B467B8049
:1039000013467B707B78002B03D07A887B681A6122
:1039100003E07B881A047B681A6100BF0C37BD4640
:1039200080BC704780B485B000AF78600B467B8068
:103930007B68DB68FB607A88FB6813401A04FB68CD
:10394000D9437B880B401A437B681A6100BF143748
:10395000BD4680BC7047000080B586B000AF78607F
:103960007B68002B01D1012372E27B681B6803F0A6
:103970000103002B00F08780924B5B6803F00C037F
:10398000042B0CD08F4B5B6803F00C03082B12D177
:103990008C4B5B6803F48033B3F5803F0BD1894BCC
:1039A0001B6803F40033002B6CD07B685B68002B32
:1039B00068D101234CE27B685B68B3F5803F06D198
:1039C000804B1B687F4A43F4803313602EE07B6892
:1039D0005B68002B0CD17B4B1B687A4A23F4803345
:1039E0001360784B1B68774A23F4802313601DE033
:1039F0007B685B68B3F5A02F0CD1724B1B68714AD2
:103A000043F4802313606F4B1B686E4A43F480338A
:103A100013600BE06B4B1B686A4A23F4803313601E
:103A2000684B1B68674A23F4802313607B685B68DC
:103A3000002B13D0FEF7ACFD386108E0FEF7A8FDBF
:103A400002463B69D31A642B01D9032300E25D4B84
:103A50001B6803F40033002BF0D014E0FEF798FD50
:103A6000386108E0FEF794FD02463B69D31A642BE7
:103A700001D90323ECE1534B1B6803F40033002B03
:103A8000F0D100E000BF7B681B6803F00203002B4D
:103A900063D04C4B5B6803F00C03002B0BD0494BFD
:103AA0005B6803F00C03082B1CD1464B5B6803F4E6
:103AB0008033002B16D1434B1B6803F00203002B0D
:103AC00005D07B681B69012B01D00123C0E13D4B70
:103AD0001B6823F0F8027B685B69DB0039491343FC
:103AE0000B603AE07B681B69002B20D0364B01222B
:103AF0001A60FEF74DFD386108E0FEF749FD024609
:103B00003B69D31A022B01D90323A1E12D4B1B687A
:103B100003F00203002BF0D02A4B1B6823F0F802BD
:103B20007B685B69DB00274913430B6015E0264B7C
:103B300000221A60FEF72CFD386108E0FEF728FD30
:103B400002463B69D31A022B01D9032380E11D4BA6
:103B50001B6803F00203002BF0D17B681B6803F0A5
:103B60000803002B3AD07B689B69002B19D0174BB8
:103B700001221A60FEF70CFD386108E0FEF708FD2F
:103B800002463B69D31A022B01D9032360E10D4B96
:103B90005B6A03F00203002BF0D0012000F0CEFAA4
:103BA0001CE00A4B00221A60FEF7F2FC38610FE0BD
:103BB000FEF7EEFC02463B69D31A022B08D9032319
:103BC00046E100BF00100240000042428004424231
:103BD000924B5B6A03F00203002BE9D17B681B6800
:103BE00003F00403002B00F0A6800023FB758B4B31
:103BF000DB6903F08053002B0DD1884BDB69874ACA
:103C000043F08053D361854BDB6903F08053BB6085
:103C1000BB680123FB75824B1B6803F48073002B88
:103C200018D17F4B1B687E4A43F480731360FEF704
:103C3000AFFC386108E0FEF7ABFC02463B69D31AE3
:103C4000642B01D9032303E1754B1B6803F48073D4
:103C5000002BF0D07B68DB68012B06D16F4B1B6A11
:103C60006E4A43F0010313622DE07B68DB68002B92
:103C70000CD16A4B1B6A694A23F001031362674B3C
:103C80001B6A664A23F0040313621CE07B68DB684E
:103C9000052B0CD1614B1B6A604A43F0040313628D
:103CA0005E4B1B6A5D4A43F0010313620BE05B4B02
:103CB0001B6A5A4A23F001031362584B1B6A574A86
:103CC00023F0040313627B68DB68002B15D0FEF73A
:103CD0005FFC38610AE0FEF75BFC02463B69D31AE1
:103CE00041F28832934201D90323B1E04B4B1B6A66
:103CF00003F00203002BEED014E0FEF749FC38611C
:103D00000AE0FEF745FC02463B69D31A41F28832CD
:103D1000934201D903239BE0404B1B6A03F002034B
:103D2000002BEED1FB7D012B05D13C4BDB693B4ADF
:103D300023F08053D3617B68DB69002B00F0878020
:103D4000364B5B6803F00C03082B61D07B68DB69A2
:103D5000022B46D1334B00221A60FEF719FC386162
:103D600008E0FEF715FC02463B69D31A022B01D985
:103D700003236DE0294B1B6803F00073002BF0D187
:103D80007B681B6AB3F5803F08D1244B5B6823F442
:103D900000327B689B68214913434B601F4B5B6873
:103DA00023F474127B68196A7B685B6A0B431B49B6
:103DB00013434B601B4B01221A60FEF7E9FB38618D
:103DC00008E0FEF7E5FB02463B69D31A022B01D956
:103DD00003233DE0114B1B6803F00073002BF0D070
:103DE00035E0104B00221A60FEF7D2FB386108E084
:103DF000FEF7CEFB02463B69D31A022B01D90323FF
:103E000026E0064B1B6803F00073002BF0D11EE088
:103E10007B68DB69012B07D1012319E00010024008
:103E200000700040600042420B4B5B68FB60FB6827
:103E300003F480327B681B6A9A4206D1FB6803F464
:103E400070127B685B6A9A4201D0012300E0002374
:103E500018461837BD4680BD0010024080B584B0BA
:103E600000AF786039607B68002B01D10123D0E07E
:103E70006A4B1B6803F007033A689A4210D9674BF4
:103E80001B6823F0070265493B6813430B60634BD3
:103E90001B6803F007033A689A4201D00123B8E097
:103EA0007B681B6803F00203002B20D07B681B6833
:103EB00003F00403002B05D0594B5B68584A43F4C8
:103EC000E06353607B681B6803F00803002B05D098
:103ED000534B5B68524A43F460535360504B5B68EA
:103EE00023F0F0027B689B684D4913434B607B686D
:103EF0001B6803F00103002B40D07B685B68012B3B
:103F000007D1474B1B6803F40033002B15D1012365
:103F10007FE07B685B68022B07D1414B1B6803F095
:103F20000073002B09D1012373E03D4B1B6803F0A4
:103F30000203002B01D101236BE0394B5B6823F0B6
:103F400003027B685B68364913434B60FEF720FB36
:103F5000F8600AE0FEF71CFB0246FB68D31A41F248
:103F60008832934201D9032353E02D4B5B6803F061
:103F70000C027B685B689B009A42EBD1274B1B6865
:103F800003F007033A689A4210D2244B1B6823F0CF
:103F9000070222493B6813430B60204B1B6803F068
:103FA00007033A689A4201D0012332E07B681B681C
:103FB00003F00403002B08D0194B5B6823F4E06284
:103FC0007B68DB68164913434B607B681B6803F012
:103FD0000803002B09D0124B5B6823F460527B6806
:103FE0001B69DB000E4913434B6000F021F80246C9
:103FF0000B4B5B681B0903F00F030A49CB5C22FAE9
:1040000003F3094A1360094B1B681846FEF77EFA52
:10401000002318461037BD4680BD00BF0020024077
:1040200000100240005C0008100000201400002076
:1040300080B487B000AF0023FB600023BB60002387
:104040007B6100237B6000233B611E4B5B68FB6050
:10405000FB6803F00C03042B02D0082B03D027E0ED
:10406000194B3B6127E0FB689B0C03F00F03174AD9
:10407000D35C7B60FB6803F48033002B10D0114BC2
:104080005B685B0C03F00103114AD35CBB607B6887
:104090000D4A03FB02F2BB68B2FBF3F37B6104E061
:1040A0007B680C4A02FB03F37B617B693B6102E0A6
:1040B000054B3B6100BF3B6918461C37BD4680BCC1
:1040C000704700BF0010024000127A00185C000820
:1040D000285C000800093D0080B400AF024B1B685B
:1040E0001846BD4680BC70471000002080B500AF68
:1040F000FFF7F2FF0246054B5B681B0A03F007035C
:104100000349CB5C22FA03F3184680BD001002403D
:10411000105C000880B500AFFFF7DEFF0246054BDC
:104120005B68DB0A03F007030349CB5C22FA03F365
:10413000184680BD00100240105C000880B485B0B5
:1041400000AF78600A4B1B680A4AA2FB03235B0A94
:104150007A6802FB03F3FB6000BFFB685A1EFA603B
:10416000002BF9D100BF00BF1437BD4680BC70479B
:1041700010000020D34D621080B582B000AF78608F
:104180007B68002B01D1012341E07B6893F83D302F
:10419000DBB2002B06D17B68002283F83C207868D4
:1041A000FEF750F87B68022283F83D207B681A688E
:1041B0007B6804331946104600F010FD7B6801222D
:1041C00083F846207B68012283F83E207B68012229
:1041D00083F83F207B68012283F840207B6801221E
:1041E00083F841207B68012283F842207B6801220A
:1041F00083F843207B68012283F844207B680122F6
:1042000083F845207B68012283F83D20002318466F
:104210000837BD4680BD000080B485B000AF78602F
:104220007B6893F83D30DBB2012B01D0012332E0F3
:104230007B68022283F83D207B681B68184A934202
:104240000ED07B681B68B3F1804F09D07B681B6878
:10425000144A934204D07B681B68134A934211D1DD
:104260007B681B689B6803F00703FB60FB68062BF9
:1042700010D07B681B681A687B681B6842F00102DB
:104280001A6007E07B681B681A687B681B6842F04D
:1042900001021A60002318461437BD4680BC7047DF
:1042A000002C0140000400400008004080B485B0AC
:1042B00000AF78607B6893F83D30DBB2012B01D012
:1042C00001233AE07B68022283F83D207B681B686B
:1042D000DA687B681B6842F00102DA607B681B6861
:1042E000184A93420ED07B681B68B3F1804F09D007
:1042F0007B681B68144A934204D07B681B68134A8E
:10430000934211D17B681B689B6803F00703FB6035
:10431000FB68062B10D07B681B681A687B681B68DB
:1043200042F001021A6007E07B681B681A687B682C
:104330001B6842F001021A60002318461437BD467C
:1043400080BC7047002C0140000400400008004081
:1043500080B584B000AF786039600023FB733B68A0
:10436000002B04D17B6893F83E30DBB213E03B684E
:10437000042B04D17B6893F83F30DBB20BE03B6841
:10438000082B04D17B6893F84030DBB203E07B68F4
:1043900093F84130DBB2BB733B68002B04D17B68E0
:1043A00093F84230DBB213E03B68042B04D17B6806
:1043B00093F84330DBB20BE03B68082B04D17B68F9
:1043C00093F84430DBB203E07B6893F84530DBB20E
:1043D0007B73BB7B012B02D17B7B012B01D00123A3
:1043E000B8E03B68002B04D17B68022283F83E20B2
:1043F00013E03B68042B04D17B68022283F83F2042
:104400000BE03B68082B04D17B68022283F8402034
:1044100003E07B68022283F841203B68002B04D133
:104420007B68022283F8422013E03B68042B04D10E
:104430007B68022283F843200BE03B68082B04D101
:104440007B68022283F8442003E07B68022283F821
:1044500045203B680C2B41D801A252F823F000BF45
:1044600095440008DD440008DD440008DD440008F0
:10447000A7440008DD440008DD440008DD440008CE
:10448000B9440008DD440008DD440008DD440008AC
:10449000CB4400087B681B68DA687B681B6842F0C5
:1044A0000202DA601DE07B681B68DA687B681B68C3
:1044B00042F00402DA6014E07B681B68DA687B680B
:1044C0001B6842F00802DA600BE07B681B68DA6860
:1044D0007B681B6842F01002DA6002E00123FB7384
:1044E00000BFFB7B002B34D17B681B68012239683D
:1044F000184600F06BFC7B681B68184A93420ED08C
:104500007B681B68B3F1804F09D07B681B68144A35
:10451000934204D07B681B68124A934211D17B6896
:104520001B689B6803F00703BB60BB68062B10D0B9
:104530007B681B681A687B681B6842F001021A607E
:1045400007E07B681B681A687B681B6842F0010201
:104550001A60FB7B18461037BD4680BD002C014019
:10456000000400400008004080B586B000AF7860CD
:1045700039607B68002B01D1012393E07B6893F8BD
:104580003D30DBB2002B06D17B68002283F83C2053
:104590007868FDF791FE7B68022283F83D207B68F6
:1045A0001B689B687A68126823F4804323F0070332
:1045B00093607B681A687B6804331946104600F0E4
:1045C0000DFB7B681B689B687B617B681B689B6934
:1045D0003B617B681B681B6AFB603B681B687A69F0
:1045E00013437B613B6923F4407323F003033B6176
:1045F0003B689A683B689B691B0213433A69134303
:104600003B613B6923F4406323F00C033B613B694E
:1046100023F4704323F0F0033B613B68DA683B68A6
:10462000DB691B0213433A6913433B613B681B6917
:104630001A013B681B6A1B0313433A6913433B612E
:10464000FB6823F02203FB603B685A683B685B69A8
:104650001B011343FA681343FB607B681B687A698C
:104660009A607B681B683A699A617B681B68FA6884
:104670001A627B68012283F846207B68012283F856
:104680003E207B68012283F83F207B68012283F86B
:1046900042207B68012283F843207B68012283F853
:1046A0003D20002318461837BD4680BD80B584B034
:1046B00000AF786039607B6893F83E30FB737B68AD
:1046C00093F83F30BB737B6893F842307B737B6811
:1046D00093F843303B733B68002B10D1FB7B012BDD
:1046E00002D17B7B012B01D0012389E07B68022270
:1046F00083F83E207B68022283F8422031E03B6849
:10470000042B10D1BB7B012B02D13B7B012B01D0B1
:10471000012375E07B68022283F83F207B68022238
:1047200083F843201DE0FB7B012B08D1BB7B012BD1
:1047300005D17B7B012B02D13B7B012B01D00123D7
:104740005EE07B68022283F83E207B68022283F8C9
:104750003F207B68022283F842207B68022283F894
:1047600043203B68002B03D03B68042B10D01FE094
:104770007B681B6801220021184600F027FB7B683C
:104780001B68DA687B681B6842F00202DA602EE080
:104790007B681B6801220421184600F017FB7B6828
:1047A0001B68DA687B681B6842F00402DA601EE06E
:1047B0007B681B6801220021184600F007FB7B681C
:1047C0001B6801220421184600F000FB7B681B686F
:1047D000DA687B681B6842F00202DA607B681B685B
:1047E000DA687B681B6842F00402DA6000BF7B680D
:1047F0001B681A687B681B6842F001021A6000237C
:1048000018461037BD4680BD80B582B000AF7860D5
:104810007B681B681B6903F00203022B22D17B68B3
:104820001B68DB6803F00203022B1BD17B681B684B
:104830006FF002021A617B6801221A777B681B689D
:104840009B6903F00303002B03D07868FDF778F829
:1048500005E0786800F0A7F9786800F0ADF97B68AA
:1048600000221A777B681B681B6903F00403042B82
:1048700022D17B681B68DB6803F00403042B1BD187
:104880007B681B686FF004021A617B6802221A774A
:104890007B681B689B6903F44073002B03D0786826
:1048A000FDF74EF805E0786800F07DF9786800F0D3
:1048B00083F97B6800221A777B681B681B6903F009
:1048C0000803082B22D17B681B68DB6803F0080310
:1048D000082B1BD17B681B686FF008021A617B688C
:1048E00004221A777B681B68DB6903F00303002B43
:1048F00003D07868FDF724F805E0786800F053F9F4
:10490000786800F059F97B6800221A777B681B6889
:104910001B6903F01003102B22D17B681B68DB6836
:1049200003F01003102B1BD17B681B686FF0100283
:104930001A617B6808221A777B681B68DB6903F4BD
:104940004073002B03D07868FCF7FAFF05E0786825
:1049500000F029F9786800F02FF97B6800221A77B7
:104960007B681B681B6903F00103012B0ED17B6878
:104970001B68DB6803F00103012B07D17B681B6810
:104980006FF001021A617868FCF7A2FF7B681B6870
:104990001B6903F08003802B0ED17B681B68DB68EA
:1049A00003F08003802B07D17B681B686FF08002C7
:1049B0001A61786800F095FA7B681B681B6903F040
:1049C0004003402B0ED17B681B68DB6803F040037B
:1049D000402B07D17B681B686FF040021A61786832
:1049E00000F0F3F87B681B681B6903F02003202BA1
:1049F0000ED17B681B68DB6803F02003202B07D1F6
:104A00007B681B686FF020021A61786800F060FA1A
:104A100000BF0837BD4680BD80B584B000AF786068
:104A200039600023FB737B6893F83C30012B01D184
:104A30000223B4E07B68012283F83C207B680222D9
:104A400083F83D207B681B689B68BB60BB6823F0D4
:104A50007703BB60BB6823F47F43BB607B681B6844
:104A6000BA689A603B681B68B3F5005F3ED0B3F547
:104A7000005F00F28780B3F5805F00F08680B3F5B9
:104A8000805F7FD8702B1AD0702B7BD8602B50D0D2
:104A9000602B77D8502B3CD0502B73D8402B58D05C
:104AA000402B6FD8302B64D0302B6BD8202B60D0AC
:104AB000202B67D8002B5CD0102B5AD062E07B688B
:104AC00018683B6899683B685A683B68DB6800F087
:104AD0005EF97B681B689B68BB60BB6843F077032B
:104AE000BB607B681B68BA689A604FE07B68186897
:104AF0003B6899683B685A683B68DB6800F047F997
:104B00007B681B689A687B681B6842F480429A60E5
:104B10003CE07B6818683B6859683B68DB681A466C
:104B200000F0BEF87B681B685021184600F015F9AC
:104B30002CE07B6818683B6859683B68DB681A465C
:104B400000F0DCF87B681B686021184600F005F96E
:104B50001CE07B6818683B6859683B68DB681A464C
:104B600000F09EF87B681B684021184600F0F5F8BD
:104B70000CE07B681A683B681B681946104600F019
:104B8000ECF803E00123FB7300E000BF7B68012227
:104B900083F83D207B68002283F83C20FB7B18468D
:104BA0001037BD4680BD80B483B000AF786000BFD1
:104BB0000C37BD4680BC704780B483B000AF7860CE
:104BC00000BF0C37BD4680BC704780B483B000AFD7
:104BD000786000BF0C37BD4680BC704780B485B09C
:104BE00000AF786039607B681B68FB607B68294A8E
:104BF00093420BD07B68B3F1804F07D07B68264A85
:104C0000934203D07B68254A934208D1FB6823F086
:104C10007003FB603B685B68FA681343FB607B686A
:104C20001C4A93420BD07B68B3F1804F07D07B685E
:104C3000194A934203D07B68184A934208D1FB6813
:104C400023F44073FB603B68DB68FA681343FB6046
:104C5000FB6823F080023B685B691343FB607B6861
:104C6000FA681A603B689A687B68DA623B681A687F
:104C70007B689A627B68074A934203D13B681A6952
:104C80007B681A637B6801225A6100BF1437BD46F6
:104C900080BC7047002C0140000400400008004028
:104CA00080B487B000AFF860B9607A60FB681B6AB7
:104CB0007B61FB681B6A23F00102FB681A62FB68D8
:104CC0009B693B613B6923F0F0033B617B681B01FF
:104CD0003A6913433B617B6923F00A037B617A697C
:104CE000BB6813437B61FB683A699A61FB687A6928
:104CF0001A6200BF1C37BD4680BC704780B487B0C5
:104D000000AFF860B9607A60FB681B6A7B61FB6882
:104D10001B6A23F01002FB681A62FB689B693B6107
:104D20003B6923F470433B617B681B033A6913437F
:104D30003B617B6923F0A0037B61BB681B017A693F
:104D400013437B61FB683A699A61FB687A691A626E
:104D500000BF1C37BD4680BC704780B485B000AF33
:104D6000786039607B689B68FB60FB6823F07003A8
:104D7000FB603A68FB68134343F00703FB607B6802
:104D8000FA689A6000BF1437BD4680BC704780B493
:104D900087B000AFF860B9607A603B60FB689B68E1
:104DA0007B617B6923F47F437B613B681A027B68EC
:104DB0001A43BB6813437A6913437B61FB687A69C2
:104DC0009A6000BF1C37BD4680BC704780B487B076
:104DD00000AFF860B9607A60BB6803F01F0301227E
:104DE00002FA03F37B61FB681A6A7B69DB431A40B2
:104DF000FB681A62FB681A6ABB6803F01F037968D4
:104E000001FA03F31A43FB681A6200BF1C37BD4660
:104E100080BC704780B485B000AF786039607B6833
:104E200093F83C30012B01D1022346E07B6801223C
:104E300083F83C207B68022283F83D207B681B6856
:104E40005B68FB607B681B689B68BB60FB6823F04A
:104E50007003FB603B681B68FA681343FB607B6868
:104E60001B68FA685A607B681B68164A93420ED02A
:104E70007B681B68B3F1804F09D07B681B68124ABE
:104E8000934204D07B681B68104A93420CD1BB68E4
:104E900023F08003BB603B685B68BA681343BB6068
:104EA0007B681B68BA689A607B68012283F83D20A2
:104EB0007B68002283F83C20002318461437BD4647
:104EC00080BC7047002C01400004004000080040F6
:104ED00080B483B000AF786000BF0C37BD4680BCA3
:104EE000704780B483B000AF786000BF0C37BD4618
:104EF00080BC704780B582B000AF78607B68002BC3
:104F000001D1012342E07B6893F84130DBB2002BF2
:104F100006D17B68002283F840207868FDF710FAFC
:104F20007B68242283F841207B681B68DA687B68F1
:104F30001B6822F40052DA60786800F009FD7B6893
:104F40001B681A697B681B6822F490421A617B68AF
:104F50001B685A697B681B6822F02A025A617B68C9
:104F60001B68DA687B681B6842F40052DA607B6871
:104F700000225A647B68202283F841207B6820222B
:104F800083F842207B6800225A63002318460837C2
:104F9000BD4680BD80B485B000AFF860B9601346EF
:104FA000FB80FB6893F84130DBB2202B21D1BB683A
:104FB000002B02D0FB88002B01D101231AE0FB68F3
:104FC000BA681A62FB68FA889A84FB68FA88DA84FD
:104FD000FB6800225A64FB68212283F84120FB68A9
:104FE0001B68DA68FB681B6842F08002DA60002305
:104FF00000E0022318461437BD4680BC704780B5D8
:1050000084B000AFF860B9601346FB80FB6893F88A
:105010004230DBB2202B12D1BB68002B02D0FB88C0
:10502000002B01D101230BE0FB6800221A63FB88EF
:105030001A46B968F86800F0B6FA034600E00223A1
:1050400018461037BD4680BD80B5BAB000AF786055
:105050007B681B681B68C7F8E4307B681B68DB68EB
:10506000C7F8E0307B681B685B69C7F8DC30002359
:10507000C7F8D8300023C7F8D430D7F8E43003F0AD
:105080000F03C7F8D830D7F8D830002B0FD1D7F896
:10509000E43003F02003002B09D0D7F8E03003F010
:1050A0002003002B03D0786800F093FB5BE2D7F875
:1050B000D830002B00F0DE80D7F8DC3003F001039D
:1050C000002B06D1D7F8E03003F49073002B00F0EA
:1050D000D180D7F8E43003F00103002B0BD0D7F8D0
:1050E000E03003F48073002B05D07B685B6C43F0E9
:1050F00001027B685A64D7F8E43003F00403002B04
:105100000BD0D7F8DC3003F00103002B05D07B680F
:105110005B6C43F002027B685A64D7F8E43003F01A
:105120000203002B0BD0D7F8DC3003F00103002B77
:1051300005D07B685B6C43F004027B685A64D7F847
:10514000E43003F00803002B11D0D7F8E03003F06F
:105150002003002B05D1D7F8DC3003F00103002B2E
:1051600005D07B685B6C43F008027B685A647B68FF
:105170005B6C002B00F0F281D7F8E43003F02003E1
:10518000002B08D0D7F8E03003F02003002B02D02A
:10519000786800F01EFB7B681B685B6903F04003C6
:1051A000002B14BF01230023DBB2C7F8D4307B6887
:1051B0005B6C03F00803002B03D1D7F8D430002B2D
:1051C0004FD0786800F028FA7B681B685B6903F0B1
:1051D0004003002B41D07B681B681433C7F89C3018
:1051E000D7F89C3053E8003FC7F89830D7F898308C
:1051F00023F04003C7F8D0307B681B681433D7F81E
:10520000D020C7F8A820C7F8A430D7F8A410D7F842
:10521000A82041E80023C7F8A030D7F8A030002B21
:10522000D9D17B68DB6B002B13D07B68DB6B7E4AAC
:105230005A637B68DB6B1846FEF760F90346002B68
:1052400016D07B68DB6B5B6B7A68D26B1046984735
:105250000EE0786800F093F90AE0786800F08FF9C2
:1052600006E0786800F08BF97B6800225A6475E1EB
:1052700000BF73E17B681B6B012B40F04F81D7F8B7
:10528000E43003F01003002B00F04881D7F8E03041
:1052900003F01003002B00F041810023BB607B680A
:1052A0001B681B68BB607B681B685B68BB60BB6876
:1052B0007B681B685B6903F04003002B00F0B6803D
:1052C0007B68DB6B1B685B68A7F8BE30B7F8BE3045
:1052D000002B00F045817B689B8DB7F8BE209A4279
:1052E00080F03E817B68B7F8BE20DA857B68DB6B97
:1052F0009B69202B00F088807B681B680C33C7F803
:105300008830D7F8883053E8003FC7F88430D7F8A2
:10531000843023F48073C7F8B8307B681B680C3383
:10532000D7F8B820C7F89420C7F89030D7F8901075
:10533000D7F8942041E80023C7F88C30D7F88C3098
:10534000002BD9D17B681B6814337B677B6F53E8D4
:10535000003F3B673B6F23F00103C7F8B4307B6825
:105360001B681433D7F8B420C7F88020FB67F96FA7
:10537000D7F8802041E80023BB67BB6F002BE1D149
:105380007B681B6814333B663B6E53E8003FFB654C
:10539000FB6D23F04003C7F8B0307B681B68143303
:1053A000D7F8B020FA66BB66B96EFA6E41E8002302
:1053B0007B667B6E002BE3D17B68202283F8422042
:1053C0007B6800221A637B681B680C33FB64FB6CF0
:1053D00053E8003FBB64BB6C23F01003C7F8AC304C
:1053E0007B681B680C33D7F8AC20BA657B65796D98
:1053F000BA6D41E800233B653B6D002BE3D17B6830
:10540000DB6B1846FEF73FF87B6802225A637B6825
:105410009A8D7B68DB8D9BB2D31A9BB21946786854
:1054200000F0B6F89CE000BFDD5600087B689A8D5E
:105430007B68DB8D9BB2D31AA7F8CE307B68DB8DFF
:105440009BB2002B00F08E80B7F8CE30002B00F01E
:1054500089807B681B680C33BB63BB6B53E8003FE0
:105460007B637B6B23F49073C7F8C8307B681B6841
:105470000C33D7F8C8207A643B64396C7A6C41E805
:105480000023FB63FB6B002BE3D17B681B681433A9
:105490007B627B6A53E8003F3B623B6A23F0010377
:1054A000C7F8C4307B681B681433D7F8C4203A634C
:1054B000FB62F96A3A6B41E80023BB62BB6A002BCE
:1054C000E3D17B68202283F842207B6800221A63A4
:1054D0007B681B680C333B613B6953E8003FFB6012
:1054E000FB6823F01003C7F8C0307B681B680C33DF
:1054F000D7F8C020FA61BB61B969FA6941E80023B5
:105500007B617B69002BE3D17B6802225A63B7F889
:10551000CE301946786800F03BF823E0D7F8E43045
:1055200003F08003002B09D0D7F8E03003F08003AC
:10553000002B03D0786800F0E5F814E0D7F8E430E9
:1055400003F04003002B0ED0D7F8E03003F0400307
:10555000002B08D0786800F024F904E000BF02E0D6
:1055600000BF00E000BFE837BD4680BD80B483B017
:1055700000AF786000BF0C37BD4680BC704780B478
:1055800083B000AF786000BF0C37BD4680BC704769
:1055900080B483B000AF78600B467B8000BF0C37CF
:1055A000BD4680BC704780B485B000AFF860B9607C
:1055B0001346FB80FB68BA689A62FB68FA889A8592
:1055C000FB68FA88DA85FB6800225A64FB682222AD
:1055D00083F84220FB681B69002B07D0FB681B681F
:1055E000DA68FB681B6842F48072DA60FB681B684B
:1055F0005A69FB681B6842F001025A61FB681B682C
:10560000DA68FB681B6842F02002DA600023184663
:105610001437BD4680BC704780B495B000AF786049
:105620007B681B680C337B637B6B53E8003F3B63F9
:105630003B6B23F49073FB647B681B680C33FA6C40
:105640003A64FB63F96B3A6C41E80023BB63BB6BC4
:10565000002BE5D17B681B6814333B623B6A53E83F
:10566000003FFB61FB6923F00103BB647B681B689F
:105670001433BA6CFA62BB62B96AFA6A41E8002371
:105680007B627B6A002BE5D17B681B6B012B19D1F8
:105690007B681B680C33FB60FB6853E8003FBB6012
:1056A000BB6823F010037B647B681B680C337A6C47
:1056B000BA617B617969BA6941E800233B613B6962
:1056C000002BE5D17B68202283F842207B680022F2
:1056D0001A6300BF5437BD4680BC704780B584B0A4
:1056E00000AF78607B685B6AFB60FB680022DA854C
:1056F000FB680022DA84F868FFF741FF00BF10372B
:10570000BD4680BD80B485B000AF78607B6893F8FB
:105710004130DBB2212B3ED17B689B68B3F5805FC3
:1057200014D17B681B69002B10D17B681B6AFB605E
:10573000FB681B881A467B681B68C2F308025A6024
:105740007B681B6A9A1C7B681A6208E07B681B6A8C
:10575000591C7A6811621A787B681B685A607B68EA
:10576000DB8C9BB2013B9BB27A681946D184002B3B
:105770000FD17B681B68DA687B681B6822F08002A7
:10578000DA607B681B68DA687B681B6842F040025D
:10579000DA60002300E0022318461437BD4680BCBF
:1057A000704780B582B000AF78607B681B68DA68AC
:1057B0007B681B6822F04002DA607B68202283F855
:1057C00041207868FFF7D2FE002318460837BD460F
:1057D00080BD80B58CB000AF78607B6893F84230B4
:1057E000DBB2222B40F0AE807B689B68B3F5805F14
:1057F00017D17B681B69002B13D10023FB627B68E8
:105800009B6ABB627B681B685B689BB2C3F308033F
:105810009AB2BB6A1A807B689B6A9A1C7B689A6200
:1058200026E07B689B6AFB620023BB627B689B6807
:10583000B3F5805F07D07B689B68002B0AD17B683B
:105840001B69002B06D17B681B685B68DAB2FB6AB8
:105850001A7008E07B681B685B68DBB203F07F03AB
:10586000DAB2FB6A1A707B689B6A5A1C7B689A6280
:105870007B68DB8D9BB2013B9BB27A681946D18570
:10588000002B5DD17B681B68DA687B681B6822F09F
:105890002002DA607B681B68DA687B681B6822F488
:1058A0008072DA607B681B685A697B681B6822F02B
:1058B00001025A617B68202283F842207B68002223
:1058C0005A637B681B6B012B35D17B6800221A63FE
:1058D0007B681B680C337B617B6953E8003F3B614D
:1058E0003B6923F010037B627B681B680C337A6A88
:1058F0003A62FB61F9693A6A41E80023BB61BB691E
:10590000002BE5D17B681B681B6803F01003102B8C
:105910000AD10023FB607B681B681B68FB607B6807
:105920001B685B68FB60FB687B689B8D1946786829
:10593000FFF72EFE02E07868FBF774FF002302E019
:10594000002300E0022318463037BD4680BD00002A
:1059500080B584B000AF78607B681B681B6923F456
:1059600040517B68DA687B681B680A431A617B6870
:105970009A687B681B691A437B685B691343BB6049
:105980007B681B68DB6823F4B05323F00C037A6850
:105990001268B9680B43D3607B681B685B6923F4AA
:1059A00040717B689A697B681B680A435A617B680F
:1059B0001B682C4A934203D1FEF7ACFBF86002E06F
:1059C000FEF794FBF860FA6813469B0013449A00B4
:1059D0001A447B685B689B00B2FBF3F3224AA2FB8C
:1059E00003235B091901FA6813469B0013449A00CC
:1059F0001A447B685B689B00B2FBF3F21A4BA3FB73
:105A000002035B09642000FB03F3D31A1B0132334A
:105A1000154AA2FB03235B0903F0F0031944FA685B
:105A200013469B0013449A001A447B685B689B00F2
:105A3000B2FBF3F20C4BA3FB02035B09642000FBF7
:105A400003F3D31A1B013233074AA2FB03235B097A
:105A500003F00F027B681B680A449A6000BF10378E
:105A6000BD4680BD003801401F85EB510A22002150
:105A700000F07EB8012B2DE9F0478646904601D014
:105A8000242B06D900F086F8162303600020BDE819
:105A9000F0870D4635482A4615F8014B065D16F08D
:105AA0000806F8D12D2C2ED101262C78951C002B20
:105AB00057D0102B09D1302C07D12A7802F0DF0201
:105AC000582A49D110236C780235002206F1004C87
:105AD0000CF1FF3CBCFBF3F9104603FB19CAA4F11F
